{
	"Introduction/VariableTypes.sol": {
		"StateVariables": {
			"abi": [
				{
					"inputs": [],
					"name": "b",
					"outputs": [
						{
							"internalType": "bool",
							"name": "",
							"type": "bool"
						}
					],
					"stateMutability": "view",
					"type": "function"
				},
				{
					"inputs": [],
					"name": "bar",
					"outputs": [],
					"stateMutability": "nonpayable",
					"type": "function"
				},
				{
					"inputs": [],
					"name": "baz",
					"outputs": [
						{
							"internalType": "address",
							"name": "",
							"type": "address"
						},
						{
							"internalType": "uint256",
							"name": "",
							"type": "uint256"
						},
						{
							"internalType": "uint256",
							"name": "",
							"type": "uint256"
						}
					],
					"stateMutability": "view",
					"type": "function"
				},
				{
					"inputs": [],
					"name": "foo",
					"outputs": [],
					"stateMutability": "nonpayable",
					"type": "function"
				},
				{
					"inputs": [],
					"name": "i",
					"outputs": [
						{
							"internalType": "uint256",
							"name": "",
							"type": "uint256"
						}
					],
					"stateMutability": "view",
					"type": "function"
				},
				{
					"inputs": [],
					"name": "myUint",
					"outputs": [
						{
							"internalType": "uint256",
							"name": "",
							"type": "uint256"
						}
					],
					"stateMutability": "view",
					"type": "function"
				},
				{
					"inputs": [],
					"name": "myaddress",
					"outputs": [
						{
							"internalType": "address",
							"name": "",
							"type": "address"
						}
					],
					"stateMutability": "view",
					"type": "function"
				}
			],
			"devdoc": {
				"kind": "dev",
				"methods": {},
				"version": 1
			},
			"evm": {
				"assembly": "    /* \"Introduction/VariableTypes.sol\":422:1310  contract StateVariables {\r... */\n  mstore(0x40, 0x80)\n    /* \"Introduction/VariableTypes.sol\":497:500  123 */\n  0x7b\n    /* \"Introduction/VariableTypes.sol\":476:500  uint public myUint = 123 */\n  0x00\n  sstore\n    /* \"Introduction/VariableTypes.sol\":422:1310  contract StateVariables {\r... */\n  callvalue\n  dup1\n  iszero\n  tag_1\n  jumpi\n  0x00\n  dup1\n  revert\ntag_1:\n  pop\n  dataSize(sub_0)\n  dup1\n  dataOffset(sub_0)\n  0x00\n  codecopy\n  0x00\n  return\nstop\n\nsub_0: assembly {\n        /* \"Introduction/VariableTypes.sol\":422:1310  contract StateVariables {\r... */\n      mstore(0x40, 0x80)\n      callvalue\n      dup1\n      iszero\n      tag_1\n      jumpi\n      0x00\n      dup1\n      revert\n    tag_1:\n      pop\n      jumpi(tag_2, lt(calldatasize, 0x04))\n      shr(0xe0, calldataload(0x00))\n      dup1\n      0xc2985578\n      gt\n      tag_10\n      jumpi\n      dup1\n      0xc2985578\n      eq\n      tag_6\n      jumpi\n      dup1\n      0xe5aa3d58\n      eq\n      tag_7\n      jumpi\n      dup1\n      0xfcf814c3\n      eq\n      tag_8\n      jumpi\n      dup1\n      0xfebb0f7e\n      eq\n      tag_9\n      jumpi\n      jump(tag_2)\n    tag_10:\n      dup1\n      0x06540f7e\n      eq\n      tag_3\n      jumpi\n      dup1\n      0x4df7e3d0\n      eq\n      tag_4\n      jumpi\n      dup1\n      0xa7916fac\n      eq\n      tag_5\n      jumpi\n    tag_2:\n      0x00\n      dup1\n      revert\n        /* \"Introduction/VariableTypes.sol\":476:500  uint public myUint = 123 */\n    tag_3:\n      tag_11\n      tag_12\n      jump\t// in\n    tag_11:\n      mload(0x40)\n      tag_13\n      swap2\n      swap1\n      tag_14\n      jump\t// in\n    tag_13:\n      mload(0x40)\n      dup1\n      swap2\n      sub\n      swap1\n      return\n        /* \"Introduction/VariableTypes.sol\":693:706  bool public b */\n    tag_4:\n      tag_15\n      tag_16\n      jump\t// in\n    tag_15:\n      mload(0x40)\n      tag_17\n      swap2\n      swap1\n      tag_18\n      jump\t// in\n    tag_17:\n      mload(0x40)\n      dup1\n      swap2\n      sub\n      swap1\n      return\n        /* \"Introduction/VariableTypes.sol\":1073:1307  function baz() external view returns (address, uint, uint) {\r... */\n    tag_5:\n      tag_19\n      tag_20\n      jump\t// in\n    tag_19:\n      mload(0x40)\n      tag_21\n      swap4\n      swap3\n      swap2\n      swap1\n      tag_22\n      jump\t// in\n    tag_21:\n      mload(0x40)\n      dup1\n      swap2\n      sub\n      swap1\n      return\n        /* \"Introduction/VariableTypes.sol\":532:642  function foo() external {\r... */\n    tag_6:\n      tag_23\n      tag_24\n      jump\t// in\n    tag_23:\n      stop\n        /* \"Introduction/VariableTypes.sol\":673:686  uint public i */\n    tag_7:\n      tag_25\n      tag_26\n      jump\t// in\n    tag_25:\n      mload(0x40)\n      tag_27\n      swap2\n      swap1\n      tag_14\n      jump\t// in\n    tag_27:\n      mload(0x40)\n      dup1\n      swap2\n      sub\n      swap1\n      return\n        /* \"Introduction/VariableTypes.sol\":713:737  address public myaddress */\n    tag_8:\n      tag_28\n      tag_29\n      jump\t// in\n    tag_28:\n      mload(0x40)\n      tag_30\n      swap2\n      swap1\n      tag_31\n      jump\t// in\n    tag_30:\n      mload(0x40)\n      dup1\n      swap2\n      sub\n      swap1\n      return\n        /* \"Introduction/VariableTypes.sol\":764:1039  function bar() external {\r... */\n    tag_9:\n      tag_32\n      tag_33\n      jump\t// in\n    tag_32:\n      stop\n        /* \"Introduction/VariableTypes.sol\":476:500  uint public myUint = 123 */\n    tag_12:\n      sload(0x00)\n      dup2\n      jump\t// out\n        /* \"Introduction/VariableTypes.sol\":693:706  bool public b */\n    tag_16:\n      0x02\n      0x00\n      swap1\n      sload\n      swap1\n      0x0100\n      exp\n      swap1\n      div\n      0xff\n      and\n      dup2\n      jump\t// out\n        /* \"Introduction/VariableTypes.sol\":1073:1307  function baz() external view returns (address, uint, uint) {\r... */\n    tag_20:\n        /* \"Introduction/VariableTypes.sol\":1111:1118  address */\n      0x00\n        /* \"Introduction/VariableTypes.sol\":1120:1124  uint */\n      dup1\n        /* \"Introduction/VariableTypes.sol\":1126:1130  uint */\n      0x00\n        /* \"Introduction/VariableTypes.sol\":1143:1157  address sender */\n      dup1\n        /* \"Introduction/VariableTypes.sol\":1160:1170  msg.sender */\n      caller\n        /* \"Introduction/VariableTypes.sol\":1143:1170  address sender = msg.sender */\n      swap1\n      pop\n        /* \"Introduction/VariableTypes.sol\":1181:1195  uint timestamp */\n      0x00\n        /* \"Introduction/VariableTypes.sol\":1198:1213  block.timestamp */\n      timestamp\n        /* \"Introduction/VariableTypes.sol\":1181:1213  uint timestamp = block.timestamp */\n      swap1\n      pop\n        /* \"Introduction/VariableTypes.sol\":1224:1237  uint blockNum */\n      0x00\n        /* \"Introduction/VariableTypes.sol\":1240:1252  block.number */\n      number\n        /* \"Introduction/VariableTypes.sol\":1224:1252  uint blockNum = block.number */\n      swap1\n      pop\n        /* \"Introduction/VariableTypes.sol\":1271:1277  sender */\n      dup3\n        /* \"Introduction/VariableTypes.sol\":1279:1288  timestamp */\n      dup3\n        /* \"Introduction/VariableTypes.sol\":1290:1298  blockNum */\n      dup3\n        /* \"Introduction/VariableTypes.sol\":1263:1299  return (sender, timestamp, blockNum) */\n      swap6\n      pop\n      swap6\n      pop\n      swap6\n      pop\n      pop\n      pop\n      pop\n        /* \"Introduction/VariableTypes.sol\":1073:1307  function baz() external view returns (address, uint, uint) {\r... */\n      swap1\n      swap2\n      swap3\n      jump\t// out\n        /* \"Introduction/VariableTypes.sol\":532:642  function foo() external {\r... */\n    tag_24:\n        /* \"Introduction/VariableTypes.sol\":567:588  uint notStateVariable */\n      0x00\n        /* \"Introduction/VariableTypes.sol\":591:594  456 */\n      0x01c8\n        /* \"Introduction/VariableTypes.sol\":567:594  uint notStateVariable = 456 */\n      swap1\n      pop\n        /* \"Introduction/VariableTypes.sol\":556:642  {\r... */\n      pop\n        /* \"Introduction/VariableTypes.sol\":532:642  function foo() external {\r... */\n      jump\t// out\n        /* \"Introduction/VariableTypes.sol\":673:686  uint public i */\n    tag_26:\n      sload(0x01)\n      dup2\n      jump\t// out\n        /* \"Introduction/VariableTypes.sol\":713:737  address public myaddress */\n    tag_29:\n      0x02\n      0x01\n      swap1\n      sload\n      swap1\n      0x0100\n      exp\n      swap1\n      div\n      0xffffffffffffffffffffffffffffffffffffffff\n      and\n      dup2\n      jump\t// out\n        /* \"Introduction/VariableTypes.sol\":764:1039  function bar() external {\r... */\n    tag_33:\n        /* \"Introduction/VariableTypes.sol\":799:805  uint x */\n      0x00\n        /* \"Introduction/VariableTypes.sol\":808:811  123 */\n      0x7b\n        /* \"Introduction/VariableTypes.sol\":799:811  uint x = 123 */\n      swap1\n      pop\n        /* \"Introduction/VariableTypes.sol\":822:828  bool f */\n      0x00\n        /* \"Introduction/VariableTypes.sol\":913:916  456 */\n      0x01c8\n        /* \"Introduction/VariableTypes.sol\":908:916  x += 456 */\n      dup3\n      tag_37\n      swap2\n      swap1\n      tag_38\n      jump\t// in\n    tag_37:\n      swap2\n      pop\n        /* \"Introduction/VariableTypes.sol\":929:933  true */\n      0x01\n        /* \"Introduction/VariableTypes.sol\":927:933  f=true */\n      swap1\n      pop\n        /* \"Introduction/VariableTypes.sol\":950:953  123 */\n      0x7b\n        /* \"Introduction/VariableTypes.sol\":946:947  i */\n      0x01\n        /* \"Introduction/VariableTypes.sol\":946:953  i = 123 */\n      dup2\n      swap1\n      sstore\n      pop\n        /* \"Introduction/VariableTypes.sol\":966:970  true */\n      0x01\n        /* \"Introduction/VariableTypes.sol\":964:965  b */\n      0x02\n      0x00\n        /* \"Introduction/VariableTypes.sol\":964:970  b=true */\n      0x0100\n      exp\n      dup2\n      sload\n      dup2\n      0xff\n      mul\n      not\n      and\n      swap1\n      dup4\n      iszero\n      iszero\n      mul\n      or\n      swap1\n      sstore\n      pop\n        /* \"Introduction/VariableTypes.sol\":1029:1030  1 */\n      0x01\n        /* \"Introduction/VariableTypes.sol\":1009:1018  myaddress */\n      0x02\n      0x01\n        /* \"Introduction/VariableTypes.sol\":1009:1031  myaddress = address(1) */\n      0x0100\n      exp\n      dup2\n      sload\n      dup2\n      0xffffffffffffffffffffffffffffffffffffffff\n      mul\n      not\n      and\n      swap1\n      dup4\n      0xffffffffffffffffffffffffffffffffffffffff\n      and\n      mul\n      or\n      swap1\n      sstore\n      pop\n        /* \"Introduction/VariableTypes.sol\":788:1039  {\r... */\n      pop\n      pop\n        /* \"Introduction/VariableTypes.sol\":764:1039  function bar() external {\r... */\n      jump\t// out\n        /* \"#utility.yul\":7:125   */\n    tag_40:\n        /* \"#utility.yul\":94:118   */\n      tag_42\n        /* \"#utility.yul\":112:117   */\n      dup2\n        /* \"#utility.yul\":94:118   */\n      tag_43\n      jump\t// in\n    tag_42:\n        /* \"#utility.yul\":89:92   */\n      dup3\n        /* \"#utility.yul\":82:119   */\n      mstore\n        /* \"#utility.yul\":7:125   */\n      pop\n      pop\n      jump\t// out\n        /* \"#utility.yul\":131:240   */\n    tag_44:\n        /* \"#utility.yul\":212:233   */\n      tag_46\n        /* \"#utility.yul\":227:232   */\n      dup2\n        /* \"#utility.yul\":212:233   */\n      tag_47\n      jump\t// in\n    tag_46:\n        /* \"#utility.yul\":207:210   */\n      dup3\n        /* \"#utility.yul\":200:234   */\n      mstore\n        /* \"#utility.yul\":131:240   */\n      pop\n      pop\n      jump\t// out\n        /* \"#utility.yul\":246:364   */\n    tag_48:\n        /* \"#utility.yul\":333:357   */\n      tag_50\n        /* \"#utility.yul\":351:356   */\n      dup2\n        /* \"#utility.yul\":333:357   */\n      tag_51\n      jump\t// in\n    tag_50:\n        /* \"#utility.yul\":328:331   */\n      dup3\n        /* \"#utility.yul\":321:358   */\n      mstore\n        /* \"#utility.yul\":246:364   */\n      pop\n      pop\n      jump\t// out\n        /* \"#utility.yul\":370:592   */\n    tag_31:\n        /* \"#utility.yul\":463:467   */\n      0x00\n        /* \"#utility.yul\":501:503   */\n      0x20\n        /* \"#utility.yul\":490:499   */\n      dup3\n        /* \"#utility.yul\":486:504   */\n      add\n        /* \"#utility.yul\":478:504   */\n      swap1\n      pop\n        /* \"#utility.yul\":514:585   */\n      tag_53\n        /* \"#utility.yul\":582:583   */\n      0x00\n        /* \"#utility.yul\":571:580   */\n      dup4\n        /* \"#utility.yul\":567:584   */\n      add\n        /* \"#utility.yul\":558:564   */\n      dup5\n        /* \"#utility.yul\":514:585   */\n      tag_40\n      jump\t// in\n    tag_53:\n        /* \"#utility.yul\":370:592   */\n      swap3\n      swap2\n      pop\n      pop\n      jump\t// out\n        /* \"#utility.yul\":598:1040   */\n    tag_22:\n        /* \"#utility.yul\":747:751   */\n      0x00\n        /* \"#utility.yul\":785:787   */\n      0x60\n        /* \"#utility.yul\":774:783   */\n      dup3\n        /* \"#utility.yul\":770:788   */\n      add\n        /* \"#utility.yul\":762:788   */\n      swap1\n      pop\n        /* \"#utility.yul\":798:869   */\n      tag_55\n        /* \"#utility.yul\":866:867   */\n      0x00\n        /* \"#utility.yul\":855:864   */\n      dup4\n        /* \"#utility.yul\":851:868   */\n      add\n        /* \"#utility.yul\":842:848   */\n      dup7\n        /* \"#utility.yul\":798:869   */\n      tag_40\n      jump\t// in\n    tag_55:\n        /* \"#utility.yul\":879:951   */\n      tag_56\n        /* \"#utility.yul\":947:949   */\n      0x20\n        /* \"#utility.yul\":936:945   */\n      dup4\n        /* \"#utility.yul\":932:950   */\n      add\n        /* \"#utility.yul\":923:929   */\n      dup6\n        /* \"#utility.yul\":879:951   */\n      tag_48\n      jump\t// in\n    tag_56:\n        /* \"#utility.yul\":961:1033   */\n      tag_57\n        /* \"#utility.yul\":1029:1031   */\n      0x40\n        /* \"#utility.yul\":1018:1027   */\n      dup4\n        /* \"#utility.yul\":1014:1032   */\n      add\n        /* \"#utility.yul\":1005:1011   */\n      dup5\n        /* \"#utility.yul\":961:1033   */\n      tag_48\n      jump\t// in\n    tag_57:\n        /* \"#utility.yul\":598:1040   */\n      swap5\n      swap4\n      pop\n      pop\n      pop\n      pop\n      jump\t// out\n        /* \"#utility.yul\":1046:1256   */\n    tag_18:\n        /* \"#utility.yul\":1133:1137   */\n      0x00\n        /* \"#utility.yul\":1171:1173   */\n      0x20\n        /* \"#utility.yul\":1160:1169   */\n      dup3\n        /* \"#utility.yul\":1156:1174   */\n      add\n        /* \"#utility.yul\":1148:1174   */\n      swap1\n      pop\n        /* \"#utility.yul\":1184:1249   */\n      tag_59\n        /* \"#utility.yul\":1246:1247   */\n      0x00\n        /* \"#utility.yul\":1235:1244   */\n      dup4\n        /* \"#utility.yul\":1231:1248   */\n      add\n        /* \"#utility.yul\":1222:1228   */\n      dup5\n        /* \"#utility.yul\":1184:1249   */\n      tag_44\n      jump\t// in\n    tag_59:\n        /* \"#utility.yul\":1046:1256   */\n      swap3\n      swap2\n      pop\n      pop\n      jump\t// out\n        /* \"#utility.yul\":1262:1484   */\n    tag_14:\n        /* \"#utility.yul\":1355:1359   */\n      0x00\n        /* \"#utility.yul\":1393:1395   */\n      0x20\n        /* \"#utility.yul\":1382:1391   */\n      dup3\n        /* \"#utility.yul\":1378:1396   */\n      add\n        /* \"#utility.yul\":1370:1396   */\n      swap1\n      pop\n        /* \"#utility.yul\":1406:1477   */\n      tag_61\n        /* \"#utility.yul\":1474:1475   */\n      0x00\n        /* \"#utility.yul\":1463:1472   */\n      dup4\n        /* \"#utility.yul\":1459:1476   */\n      add\n        /* \"#utility.yul\":1450:1456   */\n      dup5\n        /* \"#utility.yul\":1406:1477   */\n      tag_48\n      jump\t// in\n    tag_61:\n        /* \"#utility.yul\":1262:1484   */\n      swap3\n      swap2\n      pop\n      pop\n      jump\t// out\n        /* \"#utility.yul\":1490:1795   */\n    tag_38:\n        /* \"#utility.yul\":1530:1533   */\n      0x00\n        /* \"#utility.yul\":1549:1569   */\n      tag_63\n        /* \"#utility.yul\":1567:1568   */\n      dup3\n        /* \"#utility.yul\":1549:1569   */\n      tag_51\n      jump\t// in\n    tag_63:\n        /* \"#utility.yul\":1544:1569   */\n      swap2\n      pop\n        /* \"#utility.yul\":1583:1603   */\n      tag_64\n        /* \"#utility.yul\":1601:1602   */\n      dup4\n        /* \"#utility.yul\":1583:1603   */\n      tag_51\n      jump\t// in\n    tag_64:\n        /* \"#utility.yul\":1578:1603   */\n      swap3\n      pop\n        /* \"#utility.yul\":1737:1738   */\n      dup3\n        /* \"#utility.yul\":1669:1735   */\n      0xffffffffffffffffffffffffffffffffffffffffffffffffffffffffffffffff\n        /* \"#utility.yul\":1665:1739   */\n      sub\n        /* \"#utility.yul\":1662:1663   */\n      dup3\n        /* \"#utility.yul\":1659:1740   */\n      gt\n        /* \"#utility.yul\":1656:1763   */\n      iszero\n      tag_65\n      jumpi\n        /* \"#utility.yul\":1743:1761   */\n      tag_66\n      tag_67\n      jump\t// in\n    tag_66:\n        /* \"#utility.yul\":1656:1763   */\n    tag_65:\n        /* \"#utility.yul\":1787:1788   */\n      dup3\n        /* \"#utility.yul\":1784:1785   */\n      dup3\n        /* \"#utility.yul\":1780:1789   */\n      add\n        /* \"#utility.yul\":1773:1789   */\n      swap1\n      pop\n        /* \"#utility.yul\":1490:1795   */\n      swap3\n      swap2\n      pop\n      pop\n      jump\t// out\n        /* \"#utility.yul\":1801:1897   */\n    tag_43:\n        /* \"#utility.yul\":1838:1845   */\n      0x00\n        /* \"#utility.yul\":1867:1891   */\n      tag_69\n        /* \"#utility.yul\":1885:1890   */\n      dup3\n        /* \"#utility.yul\":1867:1891   */\n      tag_70\n      jump\t// in\n    tag_69:\n        /* \"#utility.yul\":1856:1891   */\n      swap1\n      pop\n        /* \"#utility.yul\":1801:1897   */\n      swap2\n      swap1\n      pop\n      jump\t// out\n        /* \"#utility.yul\":1903:1993   */\n    tag_47:\n        /* \"#utility.yul\":1937:1944   */\n      0x00\n        /* \"#utility.yul\":1980:1985   */\n      dup2\n        /* \"#utility.yul\":1973:1986   */\n      iszero\n        /* \"#utility.yul\":1966:1987   */\n      iszero\n        /* \"#utility.yul\":1955:1987   */\n      swap1\n      pop\n        /* \"#utility.yul\":1903:1993   */\n      swap2\n      swap1\n      pop\n      jump\t// out\n        /* \"#utility.yul\":1999:2125   */\n    tag_70:\n        /* \"#utility.yul\":2036:2043   */\n      0x00\n        /* \"#utility.yul\":2076:2118   */\n      0xffffffffffffffffffffffffffffffffffffffff\n        /* \"#utility.yul\":2069:2074   */\n      dup3\n        /* \"#utility.yul\":2065:2119   */\n      and\n        /* \"#utility.yul\":2054:2119   */\n      swap1\n      pop\n        /* \"#utility.yul\":1999:2125   */\n      swap2\n      swap1\n      pop\n      jump\t// out\n        /* \"#utility.yul\":2131:2208   */\n    tag_51:\n        /* \"#utility.yul\":2168:2175   */\n      0x00\n        /* \"#utility.yul\":2197:2202   */\n      dup2\n        /* \"#utility.yul\":2186:2202   */\n      swap1\n      pop\n        /* \"#utility.yul\":2131:2208   */\n      swap2\n      swap1\n      pop\n      jump\t// out\n        /* \"#utility.yul\":2214:2394   */\n    tag_67:\n        /* \"#utility.yul\":2262:2339   */\n      0x4e487b7100000000000000000000000000000000000000000000000000000000\n        /* \"#utility.yul\":2259:2260   */\n      0x00\n        /* \"#utility.yul\":2252:2340   */\n      mstore\n        /* \"#utility.yul\":2359:2363   */\n      0x11\n        /* \"#utility.yul\":2356:2357   */\n      0x04\n        /* \"#utility.yul\":2349:2364   */\n      mstore\n        /* \"#utility.yul\":2383:2387   */\n      0x24\n        /* \"#utility.yul\":2380:2381   */\n      0x00\n        /* \"#utility.yul\":2373:2388   */\n      revert\n\n    auxdata: 0xa264697066735822122063a0492e55865ef0a124e3e6e8f8f1c11ea61a20eb30019822b86738889f39df64736f6c63430008070033\n}\n",
				"bytecode": {
					"linkReferences": {},
					"object": "6080604052607b60005534801561001557600080fd5b506103de806100256000396000f3fe608060405234801561001057600080fd5b506004361061007d5760003560e01c8063c29855781161005b578063c2985578146100de578063e5aa3d58146100e8578063fcf814c314610106578063febb0f7e146101245761007d565b806306540f7e146100825780634df7e3d0146100a0578063a7916fac146100be575b600080fd5b61008a61012e565b60405161009791906102c0565b60405180910390f35b6100a8610134565b6040516100b591906102a5565b60405180910390f35b6100c6610147565b6040516100d59392919061026e565b60405180910390f35b6100e661016b565b005b6100f0610175565b6040516100fd91906102c0565b60405180910390f35b61010e61017b565b60405161011b9190610253565b60405180910390f35b61012c6101a1565b005b60005481565b600260009054906101000a900460ff1681565b60008060008033905060004290506000439050828282955095509550505050909192565b60006101c8905050565b60015481565b600260019054906101000a900473ffffffffffffffffffffffffffffffffffffffff1681565b6000607b905060006101c8826101b791906102db565b915060019050607b6001819055506001600260006101000a81548160ff0219169083151502179055506001600260016101000a81548173ffffffffffffffffffffffffffffffffffffffff021916908373ffffffffffffffffffffffffffffffffffffffff1602179055505050565b61022f81610331565b82525050565b61023e81610343565b82525050565b61024d8161036f565b82525050565b60006020820190506102686000830184610226565b92915050565b60006060820190506102836000830186610226565b6102906020830185610244565b61029d6040830184610244565b949350505050565b60006020820190506102ba6000830184610235565b92915050565b60006020820190506102d56000830184610244565b92915050565b60006102e68261036f565b91506102f18361036f565b9250827fffffffffffffffffffffffffffffffffffffffffffffffffffffffffffffffff0382111561032657610325610379565b5b828201905092915050565b600061033c8261034f565b9050919050565b60008115159050919050565b600073ffffffffffffffffffffffffffffffffffffffff82169050919050565b6000819050919050565b7f4e487b7100000000000000000000000000000000000000000000000000000000600052601160045260246000fdfea264697066735822122063a0492e55865ef0a124e3e6e8f8f1c11ea61a20eb30019822b86738889f39df64736f6c63430008070033",
					"opcodes": "PUSH1 0x80 PUSH1 0x40 MSTORE PUSH1 0x7B PUSH1 0x0 SSTORE CALLVALUE DUP1 ISZERO PUSH2 0x15 JUMPI PUSH1 0x0 DUP1 REVERT JUMPDEST POP PUSH2 0x3DE DUP1 PUSH2 0x25 PUSH1 0x0 CODECOPY PUSH1 0x0 RETURN INVALID PUSH1 0x80 PUSH1 0x40 MSTORE CALLVALUE DUP1 ISZERO PUSH2 0x10 JUMPI PUSH1 0x0 DUP1 REVERT JUMPDEST POP PUSH1 0x4 CALLDATASIZE LT PUSH2 0x7D JUMPI PUSH1 0x0 CALLDATALOAD PUSH1 0xE0 SHR DUP1 PUSH4 0xC2985578 GT PUSH2 0x5B JUMPI DUP1 PUSH4 0xC2985578 EQ PUSH2 0xDE JUMPI DUP1 PUSH4 0xE5AA3D58 EQ PUSH2 0xE8 JUMPI DUP1 PUSH4 0xFCF814C3 EQ PUSH2 0x106 JUMPI DUP1 PUSH4 0xFEBB0F7E EQ PUSH2 0x124 JUMPI PUSH2 0x7D JUMP JUMPDEST DUP1 PUSH4 0x6540F7E EQ PUSH2 0x82 JUMPI DUP1 PUSH4 0x4DF7E3D0 EQ PUSH2 0xA0 JUMPI DUP1 PUSH4 0xA7916FAC EQ PUSH2 0xBE JUMPI JUMPDEST PUSH1 0x0 DUP1 REVERT JUMPDEST PUSH2 0x8A PUSH2 0x12E JUMP JUMPDEST PUSH1 0x40 MLOAD PUSH2 0x97 SWAP2 SWAP1 PUSH2 0x2C0 JUMP JUMPDEST PUSH1 0x40 MLOAD DUP1 SWAP2 SUB SWAP1 RETURN JUMPDEST PUSH2 0xA8 PUSH2 0x134 JUMP JUMPDEST PUSH1 0x40 MLOAD PUSH2 0xB5 SWAP2 SWAP1 PUSH2 0x2A5 JUMP JUMPDEST PUSH1 0x40 MLOAD DUP1 SWAP2 SUB SWAP1 RETURN JUMPDEST PUSH2 0xC6 PUSH2 0x147 JUMP JUMPDEST PUSH1 0x40 MLOAD PUSH2 0xD5 SWAP4 SWAP3 SWAP2 SWAP1 PUSH2 0x26E JUMP JUMPDEST PUSH1 0x40 MLOAD DUP1 SWAP2 SUB SWAP1 RETURN JUMPDEST PUSH2 0xE6 PUSH2 0x16B JUMP JUMPDEST STOP JUMPDEST PUSH2 0xF0 PUSH2 0x175 JUMP JUMPDEST PUSH1 0x40 MLOAD PUSH2 0xFD SWAP2 SWAP1 PUSH2 0x2C0 JUMP JUMPDEST PUSH1 0x40 MLOAD DUP1 SWAP2 SUB SWAP1 RETURN JUMPDEST PUSH2 0x10E PUSH2 0x17B JUMP JUMPDEST PUSH1 0x40 MLOAD PUSH2 0x11B SWAP2 SWAP1 PUSH2 0x253 JUMP JUMPDEST PUSH1 0x40 MLOAD DUP1 SWAP2 SUB SWAP1 RETURN JUMPDEST PUSH2 0x12C PUSH2 0x1A1 JUMP JUMPDEST STOP JUMPDEST PUSH1 0x0 SLOAD DUP2 JUMP JUMPDEST PUSH1 0x2 PUSH1 0x0 SWAP1 SLOAD SWAP1 PUSH2 0x100 EXP SWAP1 DIV PUSH1 0xFF AND DUP2 JUMP JUMPDEST PUSH1 0x0 DUP1 PUSH1 0x0 DUP1 CALLER SWAP1 POP PUSH1 0x0 TIMESTAMP SWAP1 POP PUSH1 0x0 NUMBER SWAP1 POP DUP3 DUP3 DUP3 SWAP6 POP SWAP6 POP SWAP6 POP POP POP POP SWAP1 SWAP2 SWAP3 JUMP JUMPDEST PUSH1 0x0 PUSH2 0x1C8 SWAP1 POP POP JUMP JUMPDEST PUSH1 0x1 SLOAD DUP2 JUMP JUMPDEST PUSH1 0x2 PUSH1 0x1 SWAP1 SLOAD SWAP1 PUSH2 0x100 EXP SWAP1 DIV PUSH20 0xFFFFFFFFFFFFFFFFFFFFFFFFFFFFFFFFFFFFFFFF AND DUP2 JUMP JUMPDEST PUSH1 0x0 PUSH1 0x7B SWAP1 POP PUSH1 0x0 PUSH2 0x1C8 DUP3 PUSH2 0x1B7 SWAP2 SWAP1 PUSH2 0x2DB JUMP JUMPDEST SWAP2 POP PUSH1 0x1 SWAP1 POP PUSH1 0x7B PUSH1 0x1 DUP2 SWAP1 SSTORE POP PUSH1 0x1 PUSH1 0x2 PUSH1 0x0 PUSH2 0x100 EXP DUP2 SLOAD DUP2 PUSH1 0xFF MUL NOT AND SWAP1 DUP4 ISZERO ISZERO MUL OR SWAP1 SSTORE POP PUSH1 0x1 PUSH1 0x2 PUSH1 0x1 PUSH2 0x100 EXP DUP2 SLOAD DUP2 PUSH20 0xFFFFFFFFFFFFFFFFFFFFFFFFFFFFFFFFFFFFFFFF MUL NOT AND SWAP1 DUP4 PUSH20 0xFFFFFFFFFFFFFFFFFFFFFFFFFFFFFFFFFFFFFFFF AND MUL OR SWAP1 SSTORE POP POP POP JUMP JUMPDEST PUSH2 0x22F DUP2 PUSH2 0x331 JUMP JUMPDEST DUP3 MSTORE POP POP JUMP JUMPDEST PUSH2 0x23E DUP2 PUSH2 0x343 JUMP JUMPDEST DUP3 MSTORE POP POP JUMP JUMPDEST PUSH2 0x24D DUP2 PUSH2 0x36F JUMP JUMPDEST DUP3 MSTORE POP POP JUMP JUMPDEST PUSH1 0x0 PUSH1 0x20 DUP3 ADD SWAP1 POP PUSH2 0x268 PUSH1 0x0 DUP4 ADD DUP5 PUSH2 0x226 JUMP JUMPDEST SWAP3 SWAP2 POP POP JUMP JUMPDEST PUSH1 0x0 PUSH1 0x60 DUP3 ADD SWAP1 POP PUSH2 0x283 PUSH1 0x0 DUP4 ADD DUP7 PUSH2 0x226 JUMP JUMPDEST PUSH2 0x290 PUSH1 0x20 DUP4 ADD DUP6 PUSH2 0x244 JUMP JUMPDEST PUSH2 0x29D PUSH1 0x40 DUP4 ADD DUP5 PUSH2 0x244 JUMP JUMPDEST SWAP5 SWAP4 POP POP POP POP JUMP JUMPDEST PUSH1 0x0 PUSH1 0x20 DUP3 ADD SWAP1 POP PUSH2 0x2BA PUSH1 0x0 DUP4 ADD DUP5 PUSH2 0x235 JUMP JUMPDEST SWAP3 SWAP2 POP POP JUMP JUMPDEST PUSH1 0x0 PUSH1 0x20 DUP3 ADD SWAP1 POP PUSH2 0x2D5 PUSH1 0x0 DUP4 ADD DUP5 PUSH2 0x244 JUMP JUMPDEST SWAP3 SWAP2 POP POP JUMP JUMPDEST PUSH1 0x0 PUSH2 0x2E6 DUP3 PUSH2 0x36F JUMP JUMPDEST SWAP2 POP PUSH2 0x2F1 DUP4 PUSH2 0x36F JUMP JUMPDEST SWAP3 POP DUP3 PUSH32 0xFFFFFFFFFFFFFFFFFFFFFFFFFFFFFFFFFFFFFFFFFFFFFFFFFFFFFFFFFFFFFFFF SUB DUP3 GT ISZERO PUSH2 0x326 JUMPI PUSH2 0x325 PUSH2 0x379 JUMP JUMPDEST JUMPDEST DUP3 DUP3 ADD SWAP1 POP SWAP3 SWAP2 POP POP JUMP JUMPDEST PUSH1 0x0 PUSH2 0x33C DUP3 PUSH2 0x34F JUMP JUMPDEST SWAP1 POP SWAP2 SWAP1 POP JUMP JUMPDEST PUSH1 0x0 DUP2 ISZERO ISZERO SWAP1 POP SWAP2 SWAP1 POP JUMP JUMPDEST PUSH1 0x0 PUSH20 0xFFFFFFFFFFFFFFFFFFFFFFFFFFFFFFFFFFFFFFFF DUP3 AND SWAP1 POP SWAP2 SWAP1 POP JUMP JUMPDEST PUSH1 0x0 DUP2 SWAP1 POP SWAP2 SWAP1 POP JUMP JUMPDEST PUSH32 0x4E487B7100000000000000000000000000000000000000000000000000000000 PUSH1 0x0 MSTORE PUSH1 0x11 PUSH1 0x4 MSTORE PUSH1 0x24 PUSH1 0x0 REVERT INVALID LOG2 PUSH5 0x6970667358 0x22 SLT KECCAK256 PUSH4 0xA0492E55 DUP7 0x5E CREATE LOG1 0x24 0xE3 0xE6 0xE8 0xF8 CALL 0xC1 0x1E 0xA6 BYTE KECCAK256 0xEB ADDRESS ADD SWAP9 0x22 0xB8 PUSH8 0x38889F39DF64736F PUSH13 0x63430008070033000000000000 "
				},
				"gasEstimates": {
					"creation": {
						"codeDepositCost": "198000",
						"executionCost": "22344",
						"totalCost": "220344"
					},
					"external": {
						"b()": "2494",
						"bar()": "infinite",
						"baz()": "infinite",
						"foo()": "157",
						"i()": "2451",
						"myUint()": "2430",
						"myaddress()": "2608"
					}
				},
				"methodIdentifiers": {
					"b()": "4df7e3d0",
					"bar()": "febb0f7e",
					"baz()": "a7916fac",
					"foo()": "c2985578",
					"i()": "e5aa3d58",
					"myUint()": "06540f7e",
					"myaddress()": "fcf814c3"
				}
			},
			"storageLayout": {
				"storage": [
					{
						"astId": 4,
						"contract": "Introduction/VariableTypes.sol:StateVariables",
						"label": "myUint",
						"offset": 0,
						"slot": "0",
						"type": "t_uint256"
					},
					{
						"astId": 14,
						"contract": "Introduction/VariableTypes.sol:StateVariables",
						"label": "i",
						"offset": 0,
						"slot": "1",
						"type": "t_uint256"
					},
					{
						"astId": 16,
						"contract": "Introduction/VariableTypes.sol:StateVariables",
						"label": "b",
						"offset": 0,
						"slot": "2",
						"type": "t_bool"
					},
					{
						"astId": 18,
						"contract": "Introduction/VariableTypes.sol:StateVariables",
						"label": "myaddress",
						"offset": 1,
						"slot": "2",
						"type": "t_address"
					}
				],
				"types": {
					"t_address": {
						"encoding": "inplace",
						"label": "address",
						"numberOfBytes": "20"
					},
					"t_bool": {
						"encoding": "inplace",
						"label": "bool",
						"numberOfBytes": "1"
					},
					"t_uint256": {
						"encoding": "inplace",
						"label": "uint256",
						"numberOfBytes": "32"
					}
				}
			},
			"userdoc": {
				"kind": "user",
				"methods": {},
				"version": 1
			}
		}
	}
}