{
	"Introduction/VariableTypes.sol": {
		"StateVariables": {
			"abi": [
				{
					"inputs": [],
					"name": "b",
					"outputs": [
						{
							"internalType": "bool",
							"name": "",
							"type": "bool"
						}
					],
					"stateMutability": "view",
					"type": "function"
				},
				{
					"inputs": [],
					"name": "bar",
					"outputs": [],
					"stateMutability": "nonpayable",
					"type": "function"
				},
				{
					"inputs": [],
					"name": "foo",
					"outputs": [],
					"stateMutability": "nonpayable",
					"type": "function"
				},
				{
					"inputs": [],
					"name": "i",
					"outputs": [
						{
							"internalType": "uint256",
							"name": "",
							"type": "uint256"
						}
					],
					"stateMutability": "view",
					"type": "function"
				},
				{
					"inputs": [],
					"name": "myUint",
					"outputs": [
						{
							"internalType": "uint256",
							"name": "",
							"type": "uint256"
						}
					],
					"stateMutability": "view",
					"type": "function"
				},
				{
					"inputs": [],
					"name": "myaddress",
					"outputs": [
						{
							"internalType": "address",
							"name": "",
							"type": "address"
						}
					],
					"stateMutability": "view",
					"type": "function"
				}
			],
			"devdoc": {
				"kind": "dev",
				"methods": {},
				"version": 1
			},
			"evm": {
				"assembly": "    /* \"Introduction/VariableTypes.sol\":422:1042  contract StateVariables {\r... */\n  mstore(0x40, 0x80)\n    /* \"Introduction/VariableTypes.sol\":497:500  123 */\n  0x7b\n    /* \"Introduction/VariableTypes.sol\":476:500  uint public myUint = 123 */\n  0x00\n  sstore\n    /* \"Introduction/VariableTypes.sol\":422:1042  contract StateVariables {\r... */\n  callvalue\n  dup1\n  iszero\n  tag_1\n  jumpi\n  0x00\n  dup1\n  revert\ntag_1:\n  pop\n  dataSize(sub_0)\n  dup1\n  dataOffset(sub_0)\n  0x00\n  codecopy\n  0x00\n  return\nstop\n\nsub_0: assembly {\n        /* \"Introduction/VariableTypes.sol\":422:1042  contract StateVariables {\r... */\n      mstore(0x40, 0x80)\n      callvalue\n      dup1\n      iszero\n      tag_1\n      jumpi\n      0x00\n      dup1\n      revert\n    tag_1:\n      pop\n      jumpi(tag_2, lt(calldatasize, 0x04))\n      shr(0xe0, calldataload(0x00))\n      dup1\n      0x06540f7e\n      eq\n      tag_3\n      jumpi\n      dup1\n      0x4df7e3d0\n      eq\n      tag_4\n      jumpi\n      dup1\n      0xc2985578\n      eq\n      tag_5\n      jumpi\n      dup1\n      0xe5aa3d58\n      eq\n      tag_6\n      jumpi\n      dup1\n      0xfcf814c3\n      eq\n      tag_7\n      jumpi\n      dup1\n      0xfebb0f7e\n      eq\n      tag_8\n      jumpi\n    tag_2:\n      0x00\n      dup1\n      revert\n        /* \"Introduction/VariableTypes.sol\":476:500  uint public myUint = 123 */\n    tag_3:\n      tag_9\n      tag_10\n      jump\t// in\n    tag_9:\n      mload(0x40)\n      tag_11\n      swap2\n      swap1\n      tag_12\n      jump\t// in\n    tag_11:\n      mload(0x40)\n      dup1\n      swap2\n      sub\n      swap1\n      return\n        /* \"Introduction/VariableTypes.sol\":693:706  bool public b */\n    tag_4:\n      tag_13\n      tag_14\n      jump\t// in\n    tag_13:\n      mload(0x40)\n      tag_15\n      swap2\n      swap1\n      tag_16\n      jump\t// in\n    tag_15:\n      mload(0x40)\n      dup1\n      swap2\n      sub\n      swap1\n      return\n        /* \"Introduction/VariableTypes.sol\":532:642  function foo() external {\r... */\n    tag_5:\n      tag_17\n      tag_18\n      jump\t// in\n    tag_17:\n      stop\n        /* \"Introduction/VariableTypes.sol\":673:686  uint public i */\n    tag_6:\n      tag_19\n      tag_20\n      jump\t// in\n    tag_19:\n      mload(0x40)\n      tag_21\n      swap2\n      swap1\n      tag_12\n      jump\t// in\n    tag_21:\n      mload(0x40)\n      dup1\n      swap2\n      sub\n      swap1\n      return\n        /* \"Introduction/VariableTypes.sol\":713:737  address public myaddress */\n    tag_7:\n      tag_22\n      tag_23\n      jump\t// in\n    tag_22:\n      mload(0x40)\n      tag_24\n      swap2\n      swap1\n      tag_25\n      jump\t// in\n    tag_24:\n      mload(0x40)\n      dup1\n      swap2\n      sub\n      swap1\n      return\n        /* \"Introduction/VariableTypes.sol\":764:1039  function bar() external {\r... */\n    tag_8:\n      tag_26\n      tag_27\n      jump\t// in\n    tag_26:\n      stop\n        /* \"Introduction/VariableTypes.sol\":476:500  uint public myUint = 123 */\n    tag_10:\n      sload(0x00)\n      dup2\n      jump\t// out\n        /* \"Introduction/VariableTypes.sol\":693:706  bool public b */\n    tag_14:\n      0x02\n      0x00\n      swap1\n      sload\n      swap1\n      0x0100\n      exp\n      swap1\n      div\n      0xff\n      and\n      dup2\n      jump\t// out\n        /* \"Introduction/VariableTypes.sol\":532:642  function foo() external {\r... */\n    tag_18:\n        /* \"Introduction/VariableTypes.sol\":567:588  uint notStateVariable */\n      0x00\n        /* \"Introduction/VariableTypes.sol\":591:594  456 */\n      0x01c8\n        /* \"Introduction/VariableTypes.sol\":567:594  uint notStateVariable = 456 */\n      swap1\n      pop\n        /* \"Introduction/VariableTypes.sol\":556:642  {\r... */\n      pop\n        /* \"Introduction/VariableTypes.sol\":532:642  function foo() external {\r... */\n      jump\t// out\n        /* \"Introduction/VariableTypes.sol\":673:686  uint public i */\n    tag_20:\n      sload(0x01)\n      dup2\n      jump\t// out\n        /* \"Introduction/VariableTypes.sol\":713:737  address public myaddress */\n    tag_23:\n      0x02\n      0x01\n      swap1\n      sload\n      swap1\n      0x0100\n      exp\n      swap1\n      div\n      0xffffffffffffffffffffffffffffffffffffffff\n      and\n      dup2\n      jump\t// out\n        /* \"Introduction/VariableTypes.sol\":764:1039  function bar() external {\r... */\n    tag_27:\n        /* \"Introduction/VariableTypes.sol\":799:805  uint x */\n      0x00\n        /* \"Introduction/VariableTypes.sol\":808:811  123 */\n      0x7b\n        /* \"Introduction/VariableTypes.sol\":799:811  uint x = 123 */\n      swap1\n      pop\n        /* \"Introduction/VariableTypes.sol\":822:828  bool f */\n      0x00\n        /* \"Introduction/VariableTypes.sol\":913:916  456 */\n      0x01c8\n        /* \"Introduction/VariableTypes.sol\":908:916  x += 456 */\n      dup3\n      tag_30\n      swap2\n      swap1\n      tag_31\n      jump\t// in\n    tag_30:\n      swap2\n      pop\n        /* \"Introduction/VariableTypes.sol\":929:933  true */\n      0x01\n        /* \"Introduction/VariableTypes.sol\":927:933  f=true */\n      swap1\n      pop\n        /* \"Introduction/VariableTypes.sol\":950:953  123 */\n      0x7b\n        /* \"Introduction/VariableTypes.sol\":946:947  i */\n      0x01\n        /* \"Introduction/VariableTypes.sol\":946:953  i = 123 */\n      dup2\n      swap1\n      sstore\n      pop\n        /* \"Introduction/VariableTypes.sol\":966:970  true */\n      0x01\n        /* \"Introduction/VariableTypes.sol\":964:965  b */\n      0x02\n      0x00\n        /* \"Introduction/VariableTypes.sol\":964:970  b=true */\n      0x0100\n      exp\n      dup2\n      sload\n      dup2\n      0xff\n      mul\n      not\n      and\n      swap1\n      dup4\n      iszero\n      iszero\n      mul\n      or\n      swap1\n      sstore\n      pop\n        /* \"Introduction/VariableTypes.sol\":1029:1030  1 */\n      0x01\n        /* \"Introduction/VariableTypes.sol\":1009:1018  myaddress */\n      0x02\n      0x01\n        /* \"Introduction/VariableTypes.sol\":1009:1031  myaddress = address(1) */\n      0x0100\n      exp\n      dup2\n      sload\n      dup2\n      0xffffffffffffffffffffffffffffffffffffffff\n      mul\n      not\n      and\n      swap1\n      dup4\n      0xffffffffffffffffffffffffffffffffffffffff\n      and\n      mul\n      or\n      swap1\n      sstore\n      pop\n        /* \"Introduction/VariableTypes.sol\":788:1039  {\r... */\n      pop\n      pop\n        /* \"Introduction/VariableTypes.sol\":764:1039  function bar() external {\r... */\n      jump\t// out\n        /* \"#utility.yul\":7:125   */\n    tag_33:\n        /* \"#utility.yul\":94:118   */\n      tag_35\n        /* \"#utility.yul\":112:117   */\n      dup2\n        /* \"#utility.yul\":94:118   */\n      tag_36\n      jump\t// in\n    tag_35:\n        /* \"#utility.yul\":89:92   */\n      dup3\n        /* \"#utility.yul\":82:119   */\n      mstore\n        /* \"#utility.yul\":7:125   */\n      pop\n      pop\n      jump\t// out\n        /* \"#utility.yul\":131:240   */\n    tag_37:\n        /* \"#utility.yul\":212:233   */\n      tag_39\n        /* \"#utility.yul\":227:232   */\n      dup2\n        /* \"#utility.yul\":212:233   */\n      tag_40\n      jump\t// in\n    tag_39:\n        /* \"#utility.yul\":207:210   */\n      dup3\n        /* \"#utility.yul\":200:234   */\n      mstore\n        /* \"#utility.yul\":131:240   */\n      pop\n      pop\n      jump\t// out\n        /* \"#utility.yul\":246:364   */\n    tag_41:\n        /* \"#utility.yul\":333:357   */\n      tag_43\n        /* \"#utility.yul\":351:356   */\n      dup2\n        /* \"#utility.yul\":333:357   */\n      tag_44\n      jump\t// in\n    tag_43:\n        /* \"#utility.yul\":328:331   */\n      dup3\n        /* \"#utility.yul\":321:358   */\n      mstore\n        /* \"#utility.yul\":246:364   */\n      pop\n      pop\n      jump\t// out\n        /* \"#utility.yul\":370:592   */\n    tag_25:\n        /* \"#utility.yul\":463:467   */\n      0x00\n        /* \"#utility.yul\":501:503   */\n      0x20\n        /* \"#utility.yul\":490:499   */\n      dup3\n        /* \"#utility.yul\":486:504   */\n      add\n        /* \"#utility.yul\":478:504   */\n      swap1\n      pop\n        /* \"#utility.yul\":514:585   */\n      tag_46\n        /* \"#utility.yul\":582:583   */\n      0x00\n        /* \"#utility.yul\":571:580   */\n      dup4\n        /* \"#utility.yul\":567:584   */\n      add\n        /* \"#utility.yul\":558:564   */\n      dup5\n        /* \"#utility.yul\":514:585   */\n      tag_33\n      jump\t// in\n    tag_46:\n        /* \"#utility.yul\":370:592   */\n      swap3\n      swap2\n      pop\n      pop\n      jump\t// out\n        /* \"#utility.yul\":598:808   */\n    tag_16:\n        /* \"#utility.yul\":685:689   */\n      0x00\n        /* \"#utility.yul\":723:725   */\n      0x20\n        /* \"#utility.yul\":712:721   */\n      dup3\n        /* \"#utility.yul\":708:726   */\n      add\n        /* \"#utility.yul\":700:726   */\n      swap1\n      pop\n        /* \"#utility.yul\":736:801   */\n      tag_48\n        /* \"#utility.yul\":798:799   */\n      0x00\n        /* \"#utility.yul\":787:796   */\n      dup4\n        /* \"#utility.yul\":783:800   */\n      add\n        /* \"#utility.yul\":774:780   */\n      dup5\n        /* \"#utility.yul\":736:801   */\n      tag_37\n      jump\t// in\n    tag_48:\n        /* \"#utility.yul\":598:808   */\n      swap3\n      swap2\n      pop\n      pop\n      jump\t// out\n        /* \"#utility.yul\":814:1036   */\n    tag_12:\n        /* \"#utility.yul\":907:911   */\n      0x00\n        /* \"#utility.yul\":945:947   */\n      0x20\n        /* \"#utility.yul\":934:943   */\n      dup3\n        /* \"#utility.yul\":930:948   */\n      add\n        /* \"#utility.yul\":922:948   */\n      swap1\n      pop\n        /* \"#utility.yul\":958:1029   */\n      tag_50\n        /* \"#utility.yul\":1026:1027   */\n      0x00\n        /* \"#utility.yul\":1015:1024   */\n      dup4\n        /* \"#utility.yul\":1011:1028   */\n      add\n        /* \"#utility.yul\":1002:1008   */\n      dup5\n        /* \"#utility.yul\":958:1029   */\n      tag_41\n      jump\t// in\n    tag_50:\n        /* \"#utility.yul\":814:1036   */\n      swap3\n      swap2\n      pop\n      pop\n      jump\t// out\n        /* \"#utility.yul\":1042:1347   */\n    tag_31:\n        /* \"#utility.yul\":1082:1085   */\n      0x00\n        /* \"#utility.yul\":1101:1121   */\n      tag_52\n        /* \"#utility.yul\":1119:1120   */\n      dup3\n        /* \"#utility.yul\":1101:1121   */\n      tag_44\n      jump\t// in\n    tag_52:\n        /* \"#utility.yul\":1096:1121   */\n      swap2\n      pop\n        /* \"#utility.yul\":1135:1155   */\n      tag_53\n        /* \"#utility.yul\":1153:1154   */\n      dup4\n        /* \"#utility.yul\":1135:1155   */\n      tag_44\n      jump\t// in\n    tag_53:\n        /* \"#utility.yul\":1130:1155   */\n      swap3\n      pop\n        /* \"#utility.yul\":1289:1290   */\n      dup3\n        /* \"#utility.yul\":1221:1287   */\n      0xffffffffffffffffffffffffffffffffffffffffffffffffffffffffffffffff\n        /* \"#utility.yul\":1217:1291   */\n      sub\n        /* \"#utility.yul\":1214:1215   */\n      dup3\n        /* \"#utility.yul\":1211:1292   */\n      gt\n        /* \"#utility.yul\":1208:1315   */\n      iszero\n      tag_54\n      jumpi\n        /* \"#utility.yul\":1295:1313   */\n      tag_55\n      tag_56\n      jump\t// in\n    tag_55:\n        /* \"#utility.yul\":1208:1315   */\n    tag_54:\n        /* \"#utility.yul\":1339:1340   */\n      dup3\n        /* \"#utility.yul\":1336:1337   */\n      dup3\n        /* \"#utility.yul\":1332:1341   */\n      add\n        /* \"#utility.yul\":1325:1341   */\n      swap1\n      pop\n        /* \"#utility.yul\":1042:1347   */\n      swap3\n      swap2\n      pop\n      pop\n      jump\t// out\n        /* \"#utility.yul\":1353:1449   */\n    tag_36:\n        /* \"#utility.yul\":1390:1397   */\n      0x00\n        /* \"#utility.yul\":1419:1443   */\n      tag_58\n        /* \"#utility.yul\":1437:1442   */\n      dup3\n        /* \"#utility.yul\":1419:1443   */\n      tag_59\n      jump\t// in\n    tag_58:\n        /* \"#utility.yul\":1408:1443   */\n      swap1\n      pop\n        /* \"#utility.yul\":1353:1449   */\n      swap2\n      swap1\n      pop\n      jump\t// out\n        /* \"#utility.yul\":1455:1545   */\n    tag_40:\n        /* \"#utility.yul\":1489:1496   */\n      0x00\n        /* \"#utility.yul\":1532:1537   */\n      dup2\n        /* \"#utility.yul\":1525:1538   */\n      iszero\n        /* \"#utility.yul\":1518:1539   */\n      iszero\n        /* \"#utility.yul\":1507:1539   */\n      swap1\n      pop\n        /* \"#utility.yul\":1455:1545   */\n      swap2\n      swap1\n      pop\n      jump\t// out\n        /* \"#utility.yul\":1551:1677   */\n    tag_59:\n        /* \"#utility.yul\":1588:1595   */\n      0x00\n        /* \"#utility.yul\":1628:1670   */\n      0xffffffffffffffffffffffffffffffffffffffff\n        /* \"#utility.yul\":1621:1626   */\n      dup3\n        /* \"#utility.yul\":1617:1671   */\n      and\n        /* \"#utility.yul\":1606:1671   */\n      swap1\n      pop\n        /* \"#utility.yul\":1551:1677   */\n      swap2\n      swap1\n      pop\n      jump\t// out\n        /* \"#utility.yul\":1683:1760   */\n    tag_44:\n        /* \"#utility.yul\":1720:1727   */\n      0x00\n        /* \"#utility.yul\":1749:1754   */\n      dup2\n        /* \"#utility.yul\":1738:1754   */\n      swap1\n      pop\n        /* \"#utility.yul\":1683:1760   */\n      swap2\n      swap1\n      pop\n      jump\t// out\n        /* \"#utility.yul\":1766:1946   */\n    tag_56:\n        /* \"#utility.yul\":1814:1891   */\n      0x4e487b7100000000000000000000000000000000000000000000000000000000\n        /* \"#utility.yul\":1811:1812   */\n      0x00\n        /* \"#utility.yul\":1804:1892   */\n      mstore\n        /* \"#utility.yul\":1911:1915   */\n      0x11\n        /* \"#utility.yul\":1908:1909   */\n      0x04\n        /* \"#utility.yul\":1901:1916   */\n      mstore\n        /* \"#utility.yul\":1935:1939   */\n      0x24\n        /* \"#utility.yul\":1932:1933   */\n      0x00\n        /* \"#utility.yul\":1925:1940   */\n      revert\n\n    auxdata: 0xa26469706673582212209705e9f7eedfcee7dd15c5a7b781e9a5b5b97e330d343b57a64bce62de7e1a2264736f6c63430008070033\n}\n",
				"bytecode": {
					"linkReferences": {},
					"object": "6080604052607b60005534801561001557600080fd5b50610348806100256000396000f3fe608060405234801561001057600080fd5b50600436106100625760003560e01c806306540f7e146100675780634df7e3d014610085578063c2985578146100a3578063e5aa3d58146100ad578063fcf814c3146100cb578063febb0f7e146100e9575b600080fd5b61006f6100f3565b60405161007c919061022a565b60405180910390f35b61008d6100f9565b60405161009a919061020f565b60405180910390f35b6100ab61010c565b005b6100b5610116565b6040516100c2919061022a565b60405180910390f35b6100d361011c565b6040516100e091906101f4565b60405180910390f35b6100f1610142565b005b60005481565b600260009054906101000a900460ff1681565b60006101c8905050565b60015481565b600260019054906101000a900473ffffffffffffffffffffffffffffffffffffffff1681565b6000607b905060006101c8826101589190610245565b915060019050607b6001819055506001600260006101000a81548160ff0219169083151502179055506001600260016101000a81548173ffffffffffffffffffffffffffffffffffffffff021916908373ffffffffffffffffffffffffffffffffffffffff1602179055505050565b6101d08161029b565b82525050565b6101df816102ad565b82525050565b6101ee816102d9565b82525050565b600060208201905061020960008301846101c7565b92915050565b600060208201905061022460008301846101d6565b92915050565b600060208201905061023f60008301846101e5565b92915050565b6000610250826102d9565b915061025b836102d9565b9250827fffffffffffffffffffffffffffffffffffffffffffffffffffffffffffffffff038211156102905761028f6102e3565b5b828201905092915050565b60006102a6826102b9565b9050919050565b60008115159050919050565b600073ffffffffffffffffffffffffffffffffffffffff82169050919050565b6000819050919050565b7f4e487b7100000000000000000000000000000000000000000000000000000000600052601160045260246000fdfea26469706673582212209705e9f7eedfcee7dd15c5a7b781e9a5b5b97e330d343b57a64bce62de7e1a2264736f6c63430008070033",
					"opcodes": "PUSH1 0x80 PUSH1 0x40 MSTORE PUSH1 0x7B PUSH1 0x0 SSTORE CALLVALUE DUP1 ISZERO PUSH2 0x15 JUMPI PUSH1 0x0 DUP1 REVERT JUMPDEST POP PUSH2 0x348 DUP1 PUSH2 0x25 PUSH1 0x0 CODECOPY PUSH1 0x0 RETURN INVALID PUSH1 0x80 PUSH1 0x40 MSTORE CALLVALUE DUP1 ISZERO PUSH2 0x10 JUMPI PUSH1 0x0 DUP1 REVERT JUMPDEST POP PUSH1 0x4 CALLDATASIZE LT PUSH2 0x62 JUMPI PUSH1 0x0 CALLDATALOAD PUSH1 0xE0 SHR DUP1 PUSH4 0x6540F7E EQ PUSH2 0x67 JUMPI DUP1 PUSH4 0x4DF7E3D0 EQ PUSH2 0x85 JUMPI DUP1 PUSH4 0xC2985578 EQ PUSH2 0xA3 JUMPI DUP1 PUSH4 0xE5AA3D58 EQ PUSH2 0xAD JUMPI DUP1 PUSH4 0xFCF814C3 EQ PUSH2 0xCB JUMPI DUP1 PUSH4 0xFEBB0F7E EQ PUSH2 0xE9 JUMPI JUMPDEST PUSH1 0x0 DUP1 REVERT JUMPDEST PUSH2 0x6F PUSH2 0xF3 JUMP JUMPDEST PUSH1 0x40 MLOAD PUSH2 0x7C SWAP2 SWAP1 PUSH2 0x22A JUMP JUMPDEST PUSH1 0x40 MLOAD DUP1 SWAP2 SUB SWAP1 RETURN JUMPDEST PUSH2 0x8D PUSH2 0xF9 JUMP JUMPDEST PUSH1 0x40 MLOAD PUSH2 0x9A SWAP2 SWAP1 PUSH2 0x20F JUMP JUMPDEST PUSH1 0x40 MLOAD DUP1 SWAP2 SUB SWAP1 RETURN JUMPDEST PUSH2 0xAB PUSH2 0x10C JUMP JUMPDEST STOP JUMPDEST PUSH2 0xB5 PUSH2 0x116 JUMP JUMPDEST PUSH1 0x40 MLOAD PUSH2 0xC2 SWAP2 SWAP1 PUSH2 0x22A JUMP JUMPDEST PUSH1 0x40 MLOAD DUP1 SWAP2 SUB SWAP1 RETURN JUMPDEST PUSH2 0xD3 PUSH2 0x11C JUMP JUMPDEST PUSH1 0x40 MLOAD PUSH2 0xE0 SWAP2 SWAP1 PUSH2 0x1F4 JUMP JUMPDEST PUSH1 0x40 MLOAD DUP1 SWAP2 SUB SWAP1 RETURN JUMPDEST PUSH2 0xF1 PUSH2 0x142 JUMP JUMPDEST STOP JUMPDEST PUSH1 0x0 SLOAD DUP2 JUMP JUMPDEST PUSH1 0x2 PUSH1 0x0 SWAP1 SLOAD SWAP1 PUSH2 0x100 EXP SWAP1 DIV PUSH1 0xFF AND DUP2 JUMP JUMPDEST PUSH1 0x0 PUSH2 0x1C8 SWAP1 POP POP JUMP JUMPDEST PUSH1 0x1 SLOAD DUP2 JUMP JUMPDEST PUSH1 0x2 PUSH1 0x1 SWAP1 SLOAD SWAP1 PUSH2 0x100 EXP SWAP1 DIV PUSH20 0xFFFFFFFFFFFFFFFFFFFFFFFFFFFFFFFFFFFFFFFF AND DUP2 JUMP JUMPDEST PUSH1 0x0 PUSH1 0x7B SWAP1 POP PUSH1 0x0 PUSH2 0x1C8 DUP3 PUSH2 0x158 SWAP2 SWAP1 PUSH2 0x245 JUMP JUMPDEST SWAP2 POP PUSH1 0x1 SWAP1 POP PUSH1 0x7B PUSH1 0x1 DUP2 SWAP1 SSTORE POP PUSH1 0x1 PUSH1 0x2 PUSH1 0x0 PUSH2 0x100 EXP DUP2 SLOAD DUP2 PUSH1 0xFF MUL NOT AND SWAP1 DUP4 ISZERO ISZERO MUL OR SWAP1 SSTORE POP PUSH1 0x1 PUSH1 0x2 PUSH1 0x1 PUSH2 0x100 EXP DUP2 SLOAD DUP2 PUSH20 0xFFFFFFFFFFFFFFFFFFFFFFFFFFFFFFFFFFFFFFFF MUL NOT AND SWAP1 DUP4 PUSH20 0xFFFFFFFFFFFFFFFFFFFFFFFFFFFFFFFFFFFFFFFF AND MUL OR SWAP1 SSTORE POP POP POP JUMP JUMPDEST PUSH2 0x1D0 DUP2 PUSH2 0x29B JUMP JUMPDEST DUP3 MSTORE POP POP JUMP JUMPDEST PUSH2 0x1DF DUP2 PUSH2 0x2AD JUMP JUMPDEST DUP3 MSTORE POP POP JUMP JUMPDEST PUSH2 0x1EE DUP2 PUSH2 0x2D9 JUMP JUMPDEST DUP3 MSTORE POP POP JUMP JUMPDEST PUSH1 0x0 PUSH1 0x20 DUP3 ADD SWAP1 POP PUSH2 0x209 PUSH1 0x0 DUP4 ADD DUP5 PUSH2 0x1C7 JUMP JUMPDEST SWAP3 SWAP2 POP POP JUMP JUMPDEST PUSH1 0x0 PUSH1 0x20 DUP3 ADD SWAP1 POP PUSH2 0x224 PUSH1 0x0 DUP4 ADD DUP5 PUSH2 0x1D6 JUMP JUMPDEST SWAP3 SWAP2 POP POP JUMP JUMPDEST PUSH1 0x0 PUSH1 0x20 DUP3 ADD SWAP1 POP PUSH2 0x23F PUSH1 0x0 DUP4 ADD DUP5 PUSH2 0x1E5 JUMP JUMPDEST SWAP3 SWAP2 POP POP JUMP JUMPDEST PUSH1 0x0 PUSH2 0x250 DUP3 PUSH2 0x2D9 JUMP JUMPDEST SWAP2 POP PUSH2 0x25B DUP4 PUSH2 0x2D9 JUMP JUMPDEST SWAP3 POP DUP3 PUSH32 0xFFFFFFFFFFFFFFFFFFFFFFFFFFFFFFFFFFFFFFFFFFFFFFFFFFFFFFFFFFFFFFFF SUB DUP3 GT ISZERO PUSH2 0x290 JUMPI PUSH2 0x28F PUSH2 0x2E3 JUMP JUMPDEST JUMPDEST DUP3 DUP3 ADD SWAP1 POP SWAP3 SWAP2 POP POP JUMP JUMPDEST PUSH1 0x0 PUSH2 0x2A6 DUP3 PUSH2 0x2B9 JUMP JUMPDEST SWAP1 POP SWAP2 SWAP1 POP JUMP JUMPDEST PUSH1 0x0 DUP2 ISZERO ISZERO SWAP1 POP SWAP2 SWAP1 POP JUMP JUMPDEST PUSH1 0x0 PUSH20 0xFFFFFFFFFFFFFFFFFFFFFFFFFFFFFFFFFFFFFFFF DUP3 AND SWAP1 POP SWAP2 SWAP1 POP JUMP JUMPDEST PUSH1 0x0 DUP2 SWAP1 POP SWAP2 SWAP1 POP JUMP JUMPDEST PUSH32 0x4E487B7100000000000000000000000000000000000000000000000000000000 PUSH1 0x0 MSTORE PUSH1 0x11 PUSH1 0x4 MSTORE PUSH1 0x24 PUSH1 0x0 REVERT INVALID LOG2 PUSH5 0x6970667358 0x22 SLT KECCAK256 SWAP8 SDIV 0xE9 0xF7 0xEE 0xDF 0xCE 0xE7 0xDD ISZERO 0xC5 0xA7 0xB7 DUP2 0xE9 0xA5 0xB5 0xB9 PUSH31 0x330D343B57A64BCE62DE7E1A2264736F6C6343000807003300000000000000 "
				},
				"gasEstimates": {
					"creation": {
						"codeDepositCost": "168000",
						"executionCost": "22320",
						"totalCost": "190320"
					},
					"external": {
						"b()": "2471",
						"bar()": "infinite",
						"foo()": "179",
						"i()": "2473",
						"myUint()": "2407",
						"myaddress()": "2630"
					}
				},
				"methodIdentifiers": {
					"b()": "4df7e3d0",
					"bar()": "febb0f7e",
					"foo()": "c2985578",
					"i()": "e5aa3d58",
					"myUint()": "06540f7e",
					"myaddress()": "fcf814c3"
				}
			},
			"storageLayout": {
				"storage": [
					{
						"astId": 4,
						"contract": "Introduction/VariableTypes.sol:StateVariables",
						"label": "myUint",
						"offset": 0,
						"slot": "0",
						"type": "t_uint256"
					},
					{
						"astId": 14,
						"contract": "Introduction/VariableTypes.sol:StateVariables",
						"label": "i",
						"offset": 0,
						"slot": "1",
						"type": "t_uint256"
					},
					{
						"astId": 16,
						"contract": "Introduction/VariableTypes.sol:StateVariables",
						"label": "b",
						"offset": 0,
						"slot": "2",
						"type": "t_bool"
					},
					{
						"astId": 18,
						"contract": "Introduction/VariableTypes.sol:StateVariables",
						"label": "myaddress",
						"offset": 1,
						"slot": "2",
						"type": "t_address"
					}
				],
				"types": {
					"t_address": {
						"encoding": "inplace",
						"label": "address",
						"numberOfBytes": "20"
					},
					"t_bool": {
						"encoding": "inplace",
						"label": "bool",
						"numberOfBytes": "1"
					},
					"t_uint256": {
						"encoding": "inplace",
						"label": "uint256",
						"numberOfBytes": "32"
					}
				}
			},
			"userdoc": {
				"kind": "user",
				"methods": {},
				"version": 1
			}
		}
	}
}